:100000009CC10000CBC10000C9C10000C7C10000F5
:10001000C5C10000C3C10000C1C10000BFC10000D4
:10002000BDC100000C944511B9C10000B7C100006A
:10003000B5C10000B3C10000B1C10000AFC10000F4
:10004000ADC10000ABC10000A9C10000A7C1000004
:10005000A5C10000A3C10000A1C100000C944D1E69
:100060009DC100000C9484270C945A2797C100006E
:1000700095C1000093C1000091C100008FC1000034
:100080008DC100008BC1000089C1000087C1000044
:1000900085C1000083C1000081C100000C94F321E0
:1000A0007DC100007BC1000079C1000077C1000064
:1000B00075C1000073C1000071C100006FC1000074
:1000C0006DC100006BC1000069C1000067C1000084
:1000D00065C1000063C1000061C100005FC1000094
:1000E0005DC100005712681279128A129B12AB127E
:1000F000BB12CB12D61BD91BC81BCC1BD21B101C8E
:10010000DD1BE11BE71BEB1BEF1BF51BF91BFD1BAD
:10011000101C031C071C0B1C251D2A1D2F1D391D1F
:10012000431DBC1D4D1D551D5D1D671D711D7B1D96
:100130008A1D941DBC1D9E1DA81DB21D4552524F07
:10014000523A20417267756D656E747320617265F5
:10015000206F6620696E76616C69642074797065C1
:10016000206F722074686572652069732077726FE2
:100170006E6720636F756E74206F66207468656D9E
:100180000A004552524F523A20496E76616C6964BA
:10019000206E616D650A004552524F523A204E6FF3
:1001A000206D656D6F727920666F72206E657720A5
:1001B0007661726961626C65206F722066756E632C
:1001C00074696F6E0A0000C601970182013C01004C
:1001D000002200250028002B002E003100340002F0
:1001E000010000050108010B01000020002300268A
:1001F0000029002C002F003200000100000301063E
:1002000001090100000A0B02090C0D0E0807030486
:1002100001000000000000000000000000000000DD
:1002200000000000000000000000000000000012BC
:10023000111000000000000000000000000000009D
:100240000000000000000000000000210024002742
:10025000002A002D003000330001010000040107D6
:10026000010A01010210202008081020401020403F
:10027000800201020108040201010204081020406A
:100280008080402010080402018004020180402088
:1002900010080402010804020101020408102040B1
:1002A00080010204081020408005050505070508A7
:1002B000080808020202020A0A08080404040401E9
:1002C000010101010101010303030303030303040B
:1002D0000707070C0C0C0C0C0C0C0C02020202069B
:1002E000060606060606060B0B0B0B0B0B0B0B6329
:1002F00064696E6F70737578585B004E414E494E5D
:10030000495459494E46CDCCCC3D0AD7233C17B76A
:10031000D13877CC2B329595E6241FB14F0A0000D7
:1003200020410000C84200401C4620BCBE4CCA1BF5
:100330000E5AAEC59D7407333E3411241FBECFEF55
:10034000D1E2DEBFCDBF00E00CBF17E0A0E0B2E01D
:10035000E8E9F3E800E00BBF02C007900D92AC3271
:10036000B107D9F722E1ACE2B7E001C01D92A43099
:10037000B207E1F711E0CCE9D1E000E006C0219737
:100380000109802FFE010E947634CB39D10780E02D
:100390000807A9F70E94812F0C94BA4131CE8091B1
:1003A0005C0790915D07A0915E07B0915F07892B74
:1003B0008A2B8B2BD1F48091600790916107A091DB
:1003C0006207B0916307892B8A2B8B2B71F4809184
:1003D000640790916507A0916607B0916707892B24
:1003E0008A2B8B2B11F48FEF2FC080915C0790919B
:1003F0005D07A0915E07B0915F07892B8A2B8B2B3D
:1004000061F18091600790916107A0916207B091BE
:100410006307892B8A2B8B2B01F5809164079091C0
:100420006507A0916607B0916707892B8A2B8B2BF4
:10043000A1F480915B0790EF980F943A08F4C1C043
:10044000853B08F08AC084E0109257071092580745
:100450001092590780934A07089580915C07909104
:100460005D07A0915E07B0915F07892B8A2B8B2BCC
:10047000C9F08091600790916107A0916207B091E7
:100480006307892B8A2B8B2B69F0809164079091ED
:100490006507A0916607B0916707892B8A2B8B2B84
:1004A00009F45DC080915C0790915D07A0915E07A3
:1004B000B0915F07892B8A2B8B2B09F4ABC08091FD
:1004C000600790916107A0916207B0916307892B43
:1004D0008A2B8B2B09F09EC0809164079091650751
:1004E000A0916607B0916707892B8A2B8B2B09F4A3
:1004F00091C080915C0790915D07A0915E07B091DB
:100500005F0740916407509165076091660770919D
:100510006707841B950BA60BB70B181619061A064E
:100520001B060CF0B6C180915C0790915D07A0910D
:100530005E07B0915F074091640750916507609135
:10054000660770916707841B950BA60BB70B80316C
:100550009742A105B1050CF0ADC183E075CF809144
:100560005C0790915D07A0915E07B0915F07409195
:100570006007509161076091620770916307841B67
:10058000950BA60BB70B181619061A061B06DCF4FA
:1005900080915C0790915D07A0915E07B0915F0725
:1005A0004091600750916107609162077091630705
:1005B000841B950BA60BB70B80319742A105B105A3
:1005C0009CF485E041CF8091600790916107A091F4
:1005D0006207B091630740915C0750915D0760919D
:1005E0005E0770915F07E4CF40915C0750915D0713
:1005F00060915E0770915F0780916007909161073D
:10060000A0916207B0916307481759076A077B07F3
:10061000C0F22BC280915C0790915D07A0915E07AC
:10062000B0915F07892B8A2B8B2BC9F480916007CF
:1006300090916107A0916207B0916307892B8A2B83
:100640008B2B69F08091640790916507A0916607F4
:10065000B0916707892B8A2B8B2B09F018C18091E9
:100660005C0790915D07A0915E07B0915F07892BB1
:100670008A2B8B2B69F48091600790916107A09180
:100680006207B0916307892B8A2B8B2B09F429C150
:1006900080915C0790915D07A0915E07B0915F0724
:1006A000892B8A2B8B2B69F48091600790916107CD
:1006B000A0916207B0916307892B8A2B8B2B09F0DD
:1006C0001DC180915C0790915D07A0915E07B0917C
:1006D0005F074091600750916107609162077091D8
:1006E0006307841B950BA60BB70B181619061A0681
:1006F0001B060CF019C180915C0790915D07A091D9
:100700005E07B0915F07409160075091610760916B
:10071000620770916307841B950BA60BB70B8031A2
:100720009742A105B1050CF410C180915C0790912E
:100730005D07A0915E07B0915F07409160075091FF
:1007400061076091620770916307841B950BA60B8C
:10075000B70B181619061A061B060CF088C18091F3
:100760005C0790915D07A0915E07B0915F07409193
:100770006007509161076091620770916307841B65
:10078000950BA60BB70B80319742A105B1050CF470
:100790007FC180915C0790915D07A0915E07B09149
:1007A0005F074091640750916507609166077091FB
:1007B0006707841B950BA60BB70B181619061A06AC
:1007C0001B060CF07CC180915C0790915D07A091A5
:1007D0005E07B0915F074091640750916507609193
:1007E000660770916707841B950BA60BB70B8031CA
:1007F0009742A105B1050CF473C1809160079091F7
:100800006107A0916207B09163074091640750911E
:1008100065076091660770916707841B950BA60BAF
:10082000B70B181619061A061B060CF070C180913A
:10083000600790916107A0916207B09163074091B2
:100840006407509165076091660770916707841B84
:10085000950BA60BB70B80319742A105B1050CF0A3
:1008600067C140915C0750915D0760915E07709190
:100870005F078091600790916107A0916207B09136
:100880006307481759076A077B0708F4DCCD80E047
:10089000DBCD8091640790916507A0916607B091C8
:1008A000670740915C0750915D0760915E0770910A
:1008B0005F0749CE40915C0750915D0760915E07EC
:1008C00070915F078091640790916507A09166071A
:1008D000B0916707481759076A077B0708F43DCEB0
:1008E00021C08091640790916507A0916607B0913F
:1008F0006707892B8A2B8B2B79F4CACE80916407EA
:1009000090916507A0916607B0916707892B8A2BA4
:100910008B2B09F4A5C0D5CE80915B078150843B19
:1009200008F4B5CF82E090CD809160079091610787
:10093000A0916207B091630740915C0750915D07F9
:1009400060915E0770915F07E6CE80915C079091A1
:100950005D07A0915E07B0915F07409164075091D9
:1009600065076091660770916707841B950BA60B5E
:10097000B70B181619061A061B068CF480915C0733
:1009800090915D07A0915E07B0915F074091640769
:1009900050916507609166077091670710C080915C
:1009A000640790916507A0916607B0916707409131
:1009B0005C0750915D0760915E0770915F07841B33
:1009C000950BA60BB70B80319742A105B1050CF032
:1009D000ACCE8091600790916107A0916207B091C1
:1009E00063074091640750916507609166077091B5
:1009F0006707841B950BA60BB70B181619061A066A
:100A00001B068CF48091600790916107A0916207AA
:100A1000B091630740916407509165076091660744
:100A20007091670710C08091640790916507A0914D
:100A30006607B09167074091600750916107609128
:100A4000620770916307841B950BA60BB70B80316F
:100A50009742A105B1050CF068CE80914A07F4CC0D
:100A600080915B07843B08F012CF86E0EDCC80914B
:100A7000600790916107A0916207B0916307409170
:100A80005C0750915D0760915E0770915F0777CEBC
:100A90004091640750916507609166077091670700
:100AA00080915C0790915D07A0915E07B0915F0710
:100AB000481759076A077B0708F083CDB9C08091B2
:100AC000640790916507A0916607B0916707409110
:100AD0005C0750915D0760915E0770915F0783CE60
:100AE00040916007509161076091620770916307C0
:100AF00080915C0790915D07A0915E07B0915F07C0
:100B0000481759076A077B0708F027CD93C08091E3
:100B1000640790916507A0916607B09167074091BF
:100B200060075091610760916207709163078FCEF3
:100B3000409160075091610760916207709163076F
:100B400080915C0790915D07A0915E07B0915F076F
:100B5000481759076A077B07B0F440915C0750912A
:100B60005D0760915E0770915F07809164079091C7
:100B70006507A0916607B0916707481759076A078C
:100B80007B0708F472CF409164075091650760912C
:100B900066077091670780915C0790915D07A0914F
:100BA0005E07B0915F07481759076A077B07B0F4E3
:100BB00040915C0750915D0760915E0770915F07FF
:100BC0008091600790916107A0916207B0916307DF
:100BD000481759076A077B0708F4A4CE40916007BD
:100BE000509161076091620770916307809164077B
:100BF00090916507A0916607B0916707481759075C
:100C00006A077B07B8F040916407509165076091CF
:100C10006607709167078091600790916107A091C6
:100C20006207B0916307481759076A077B0720F4EA
:100C300081E00ACC87E008CC40915C0750915D07C9
:100C400060915E0770915F078091600790916107E6
:100C5000A0916207B0916307481759076A077B079D
:100C600008F07BCC4091600750916107609162076A
:100C7000709163078091640790916507A091660762
:100C8000B0916707481759076A077B0708F065CCDA
:100C900098CC8091E70F813051F48091E10F84303E
:100CA00031F48091040290E001968093040208954B
:100CB0008091E70F882319F0813049F0089581E091
:100CC00090910302911180E0809303020895809136
:100CD000E10F843031F48091040290E0019680931A
:100CE00004020895609177117091781180917911C3
:100CF00090917A110E9461357F936F938AE795E016
:100D00009F938F931F9281E88F938DEC97E09F9331
:100D10008F930E942F388DB79EB708960FB6F89420
:100D20009EBF0FBE8DBF8DEC97E00C949C1FCF92A1
:100D3000DF92EF92FF920F931F93CF93DF93C7E45D
:100D4000D5E08EE7E82E85E0F82E91E8C92E0DEC6F
:100D500017E0DC2E83E0D80E89910E946B1C992746
:100D60009F938F93FF92EF921F92CF921F930F93B7
:100D70000E942F388DEC97E00E949C1F8DB79EB784
:100D800008960FB6F8949EBF0FBE8DBFDC12E4CF5D
:100D90008AE0DF91CF911F910F91FF90EF90DF904C
:100DA000CF900C941F20CF92DF92EF92FF920F937F
:100DB0001F93CF93DF930BE711E1C0E082E8E82EA9
:100DC00085E0F82ED1E89DECC92E97E0D92EF801E8
:100DD00080810E946B1C99279F938F93FF92EF92C3
:100DE0001F92DF93DF92CF920E942F388DEC97E015
:100DF0000E949C1F8DB79EB708960FB6F8949EBFB1
:100E00000FBE8DBFC33019F080E20E941F20CF5F5C
:100E1000065F1F4FC430D9F68AE0DF91CF911F9152
:100E20000F91FF90EF90DF90CF900C941F200E94C5
:100E3000411E60932C0770932D0780932E0790938B
:100E40002F070895CF93DF931F92CDB7DEB7CE0162
:100E500001969F938F9385ED95E09F938F9380915B
:100E6000E30F8F938091E20F8F930E946B380F9066
:100E70000F900F900F900F900F90019719F5E98147
:100E80008AE0E89FF0011124E558FE4E80810E941F
:100E90006B1C99279F938F938AE795E09F938F937D
:100EA0001F9281E88F938DEC97E09F938F930E9420
:100EB0002F388DEC97E00E949C1F0FB6F894DEBF90
:100EC0000FBECDBF0F90DF91CF910895AF92BF922B
:100ED000DF92EF92FF920F931F93CF93DF931F92B6
:100EE000CDB7DEB7CE0101969F938F9385ED95E048
:100EF0009F938F938091E30F8F938091E20F8F9355
:100F00000E946B380F900F900F900F900F900F90E2
:100F10000197D9F4D98085E3E82E85E0F82E00E02A
:100F200010E0AA24A394B12CB501002E01C0660FD5
:100F30000A94EAF76D21F70181917F010E94931CC9
:100F40000F5F1F4F0430110579F70F90DF91CF919C
:100F50001F910F91FF90EF90DF90BF90AF90089599
:100F6000682F82EA90E10C945227CF93DF931F926F
:100F7000CDB7DEB7CE0101969F938F9385ED95E0B7
:100F80009F938F938091E30F8F938091E20F8F93C4
:100F90000E946B380F900F900F900F900F900F9052
:100FA0000197F9F4E981F0E0E75CFA4F80810E9453
:100FB000C51D9F938F938AE795E09F938F931F9210
:100FC00081E88F938DEC97E09F938F930E942F3849
:100FD0008DEC97E00E949C1F0FB6F894DEBF0FBE09
:100FE000CDBF0F90DF91CF9108957F928F929F9206
:100FF000AF92BF92CF92DF92EF92FF920F931F9327
:10100000CF93DF93CDB7DEB76C970FB6F894DEBF02
:101010000FBECDBF49E3C42E45E0D42E8E010F5F35
:101020001F4F5E018DE1A80EB11C7801F601819180
:101030006F010E94C51DF701819391937F01EA150D
:10104000FB05A1F74E01FBE18F0E911C95E8A92E3F
:1010500095E0B92E21E8722E3DECC32E37E0D32E59
:10106000F801808191810E5F1F4F9F938F93BF92F4
:10107000AF921F927F928DECE82E87E0F82EDF92E0
:10108000CF920E942F38C7010E949C1F0FB6F89480
:10109000DEBF0FBECDBF0815190511F78C8D8F93DC
:1010A0008B8D8F938AE895E09F938F931F9281E8B1
:1010B0008F93FF92EF920E942F380FB6F894DEBF05
:1010C0000FBECDBFC7016C960FB6F894DEBF0FBE42
:1010D000CDBFDF91CF911F910F91FF90EF90DF90E7
:1010E000CF90BF90AF909F908F907F900C949C1F5B
:1010F000CF92DF92EF92FF920F931F93CF93DF93E4
:10110000C82FD0E0FE01E75CFA4F80810E94C51D28
:10111000BC019E01220F331FF901E75EFA4FC08028
:10112000D1808C159D0550F0F901E350FB4F808173
:1011300091818617970718F4BC0101C0B601E12C14
:10114000F12CCB01A0E0B0E08C199D09AE09BF09DC
:10115000BC01CD014AE0660F771F881F991F4A9591
:10116000D1F7F901E350FB4F20813181890120E063
:1011700030E0A90198012C193D094E095F090E9430
:101180006341C901DF91CF911F910F91FF90EF90C3
:10119000DF90CF900895CF93DF931F92CDB7DEB746
:1011A000CE0101969F938F9385ED95E09F938F934A
:1011B0008091E30F8F938091E20F8F930E946B38A1
:1011C0000F900F900F900F900F900F900197D1F408
:1011D00089818EDF9F938F938AE795E09F938F930A
:1011E0001F9281E88F938DEC97E09F938F930E94DD
:1011F0002F388DEC97E00E949C1F0FB6F894DEBF4D
:101200000FBECDBF0F90DF91CF9108950F931F9325
:10121000CF938C01C0E08C2F6BDFF8018193919309
:101220008F01CF5FCE30B9F7CF911F910F91089505
:101230007F928F929F92AF92BF92CF92DF92EF9266
:10124000FF920F931F93CF93DF93CDB7DEB76C97C9
:101250000FB6F894DEBF0FBECDBFCE010196D6DF2C
:101260008E010F5F1F4F4E018BE1880E911C95E898
:10127000A92E95E0B92E21E8722E3DECC32E37E061
:10128000D32EF801808191810E5F1F4F9F938F9322
:10129000BF92AF921F927F928DECE82E87E0F82EDE
:1012A000DF92CF920E942F38C7010E949C1F0FB679
:1012B000F894DEBF0FBECDBF0815190511F78C8D50
:1012C0008F938B8D8F938AE895E09F938F931F92D6
:1012D00081E88F93FF92EF920E942F38C7010E94FE
:1012E0009C1F0FB6F894DEBF0FBECDBF6C960FB635
:1012F000F894DEBF0FBECDBFDF91CF911F910F914C
:10130000FF90EF90DF90CF90BF90AF909F908F9025
:101310007F9008950F931F93CF93DF938FE895E00D
:101320000E94BA2840915C0750915D0760915E076A
:1013300070915F072AE082EA90E10E940A2764EA3E
:1013400075E082EA90E10E94592740916007509130
:10135000610760916207709163072AE082EA90E179
:101360000E940A2764EA75E082EA90E10E94592708
:101370004091640750916507609166077091670717
:101380002AE082EA90E10E940A2760EA75E082EA98
:1013900090E10E94DE2110926A07C0915A07C111A4
:1013A000CEC063EA75E082EA90E10E94592700917D
:1013B0005C0710915D0720915E0730915F07809177
:1013C000600790916107A0916207B0916307409117
:1013D0006407509165076091660770916707C1E0E7
:1013E000892B8A2B8B2B09F4C0E081E0012B022B87
:1013F000032B09F480E0C80F81E0452B462B472BD7
:1014000009F480E0C80F1092590710925807109203
:101410005707C11106C010925A078FEF8093000240
:10142000CAC1C13009F052C080915C0790915D073C
:10143000A0915E07B0915F07892B8A2B8B2BD9F483
:1014400066EA75E082EA90E10E945927C0935A0744
:1014500080E991E0A0E0B0E08093530790935407B7
:10146000A0935507B093560780915B0780930002C5
:10147000C0936A0718C061EB75E082EA90E10E94B0
:10148000592782E080935A0788EC90E0A0E0B0E012
:101490008093530790935407A0935507B093560732
:1014A00084E0809300020E94411E60934F07709376
:1014B0005007809351079093520760934B077093A6
:1014C0004C0780934D0790934E0775C182E080933F
:1014D0005A07C23029F080E293E0A0E0B0E004C0F7
:1014E00080E991E0A0E0B0E0809353079093540727
:1014F000A0935507B09356070E94411E60934F0773
:1015000070935007809351079093520760934B0755
:1015100070934C0780934D0790934E070E94CF0124
:1015200080930002682F82EA90E10E94792964EAA0
:1015300075E082EA90E10E9459276C2FA1C0C1306A
:1015400009F0A3C065EB75E082EA90E10E9459279B
:1015500000915C0710915D0720915E0730915F0755
:101560008091600790916107A0916207B091630735
:101570004091640750916507609166077091670715
:10158000109259071092580710925707892B8A2BEF
:101590008B2B09F4C0E081E0012B022B032B09F413
:1015A00080E0C80F81E0452B462B472B09F480E0F3
:1015B000C80FC13009F04AC00E94411E00914F0778
:1015C000109150072091510730915207DC01CB0157
:1015D000801B910BA20BB30B009153071091540782
:1015E0002091550730915607081719072A073B071E
:1015F00020F568EB75E082EA90E10E94592710928D
:101600005A078FEF809300021092640710926507CB
:101610001092660710926707109260071092610798
:10162000109262071092630710925C0710925D0798
:1016300010925E0710925F07B8C066EA75E082EA12
:1016400090E10E945927C0936A07B5C082E0809359
:101650005A070E94411E60934F0770935007809372
:1016600051079093520760934B0770934C078093F8
:101670004D0790934E070E94CF0180930002682F80
:1016800082EA90E10E94792996C0C23009F093C0A5
:1016900060EC75E082EA90E10E9459270E94CF0138
:1016A000D82F80910002D817A1F10E94411E00910D
:1016B0004B0710914C0720914D0730914E07DC01EC
:1016C000CB01801B910BA20BB30B85369105A105B5
:1016D000B10578F10E94411E00914F07109150070B
:1016E0002091510730915207DC01CB01801B910BF7
:1016F000A20BB30B0091530710915407209155078B
:1017000030915607081719072A073B0708F470C0DD
:1017100010C063EC75E082EA90E10E9459270E94B4
:10172000411E60934B0770934C0780934D07909335
:101730004E078BE00E946B1CC82F0E94E41D9B018A
:10174000AC01AC2FB0E00E947F4160935C077093C6
:101750005D0780935E0790935F078DE00E946B1C8E
:10176000C82F0E94E41D9B01AC01AC2FB0E00E9489
:101770007F41609360077093610780936207909345
:1017800063078AE00E946B1CC82F0E94E41D9B0126
:10179000AC01AC2FB0E00E947F416093640770936E
:1017A0006507809366079093670710925907109218
:1017B00058071092570768EC75E082EA90E10E94A2
:1017C00059274091000250E060E070E02AE082EA90
:1017D00090E10E940A2760EA75E082EA90E10E94A7
:1017E000DE2180910002DF91CF911F910F9108952A
:1017F000DF3F09F4C0E0C0935A070E94411E609386
:101800004F0770935007809351079093520760934E
:101810004B0770934C0780934D0790934E07D093DE
:1018200000026D2F82EA90E10E94792982CFE82F91
:10183000F0E0EB5CFA4F80810C94931C6091040201
:1018400070E089E00E94FE1CE8E6F0E080818E7F77
:1018500080839081809103028170892B80836091C5
:10186000030282E0E4CFCF93DF931F921F92CDB7A4
:10187000DEB7CE0101969F938F9301969F938F932E
:1018800080ED95E09F938F938091E30F8F938091EC
:10189000E20F8F930E946B380FB6F894DEBF0FBE35
:1018A000CDBF029719F469818A81C1DF0F900F9033
:1018B000DF91CF9108950F931F938091420781117B
:1018C0000DC00E94411E60933E0770933F078093B6
:1018D00040079093410781E0809342078CE20E9489
:1018E0006B1C892B61F40E94411E60933E0770932C
:1018F0003F07809340079093410781E017C00E9403
:10190000411E00913E0710913F0720914007309102
:101910004107AB01BC01401B510B620B730B81E013
:10192000443151056105710508F080E01F910F9168
:101930000895C1DF1F928F938AE795E09F938F935D
:101940001F9281E88F938DEC97E09F938F930E9475
:101950002F388DB79EB708960FB6F8949EBF0FBE6E
:101960008DBF8DEC97E00C949C1F61E07FEF8BE5C1
:1019700091E10E94E92A8FEF80933D070895F5CF0A
:1019800061E07FEF8BE591E10E94E92A81E080939D
:101990003D070895F5CF8BE591E10E94D22A109280
:1019A0003D070895F8CF8091E70F813089F028F046
:1019B0008230B9F08330E9F0089580913D0781309D
:1019C00009F4D3CF8F3F09F4E6CF811119C0D8CFE6
:1019D0009091E10F943011F081E0890F8093E10F35
:1019E000089581E090913007911180E08093300755
:1019F000089581E09091A707911180E08093A70757
:101A0000089564E670E080E090E00E94091E8FE592
:101A100091E10E94EA2CEFE5F1E16089862F846074
:101A2000808B6C60CF010E94E82C6AED75E08FE539
:101A300091E10C945927E5DF60E080E0F8DE0E9438
:101A4000E02AA9CF0E94BA2760937711709378118A
:101A50008093791190937A110895F4CF8091E70FD4
:101A6000813089F028F0823091F0833081F0089540
:101A70008091E60F90E0019663E070E00E9463348D
:101A80008093E60F08958091E10F813009F4DACF59
:101A900008950F931F930E94411E00912C071091EF
:101AA0002D0720912E0730912F07AB01BC01401B61
:101AB000510B620B730B8091E70F493E5340610558
:101AC0007105D0F0823009F478C082E08093E70F8E
:101AD000B9DF8FE591E10E94EA2C6BEE75E08FE5AE
:101AE00091E10E94592760E080E0A1DE80EF95E05F
:101AF0001F910F910C94BA28813061F020F083304F
:101B000009F45BC05FC081E08093E70F8093E10F31
:101B100060E030C083E08093E70FEBE6F7E08FEF03
:101B20009FEF8193919327E0E73AF207D1F786DEA2
:101B30008FEF80935B07609177117091781180919E
:101B4000791190917A110E946135709369076093C1
:101B5000680710926A078091030281110FC08FE518
:101B600091E10E94EA2C6BEF75E08FE591E10E9414
:101B7000592761E080E01F910F9159CE10925C07C8
:101B800010925D0710925E0710925F071092570740
:101B9000109260071092610710926207109263071B
:101BA000109258071092640710926507109266070A
:101BB0001092670710925907D2CF1092E70F1F912A
:101BC0000F9139CF1F910F9108950F931F93CF93CA
:101BD000DF93BC0180E090E00E944B4020E030E0C9
:101BE00044EB53E40E949B358B01D82FC92F20E092
:101BF00030E0A9010E94474087FF0AC020E030E0A2
:101C000044EB53E4B8018D2F9C2F0E947F3403C016
:101C1000B8018D2F9C2F8B019C010093771110939D
:101C200078112093791130937A11DF91CF911F9120
:101C30000F910895CF92DF92EF92FF920E94BA2700
:101C400020917711309178114091791150917A114A
:101C50000E947E3420E030E044EB53E40E947F3465
:101C600020E030E044EB53E40E949B356B017C01A3
:101C700020E030E0A9010E94474087FF0AC020E031
:101C800030E044EB53E4C701B6010E947F346B019E
:101C90007C01C701B6010E946135CB01FF90EF9036
:101CA000DF90CF900895C6DF9F938F938AE795E0EA
:101CB0009F938F931F9281E88F938DEC97E09F9372
:101CC0008F930E942F388DB79EB708960FB6F89461
:101CD0009EBF0FBE8DBF8DEC97E00C949C1FEF92C2
:101CE000FF921F93CF93DF93CDB7DEB76C970FB6FC
:101CF000F894DEBF0FBECDBFCE01019687DADE01BC
:101D0000119680E010E04D915D91FE013196E10F5A
:101D1000F11DE10FF11D208131814217530708F4B5
:101D2000182F8F5F8C3079F7E12EF12CEE0CFF1C11
:101D3000E1E0F0E0EC0FFD1FEE0DFF1D80819181D1
:101D4000893E934058F4B7DD882359F089819A8100
:101D5000883E934030F480E090E033C08FEF9FEFF7
:101D600030C0E1E0F0E0EC0FFD1FEE0DFF1D8081C3
:101D700091818732924038F02EE1129FC0011124E8
:101D800088519C4F1EC0113041F4898D9A8D873245
:101D9000924090F48FE090E014C01B3041F48B8DA2
:101DA0009C8D8732924058F489E591E00AC02EE17B
:101DB000129FC001112405C08EE190E002C08AE4A8
:101DC00091E06C960FB6F894DEBF0FBECDBFDF91E9
:101DD000CF911F91FF90EF900895EF92FF920F9394
:101DE0001F93CF93DF938091350781110DC00E941F
:101DF000411E6093310770933207809333079093AD
:101E0000340781E0809335070E94411E009131071D
:101E1000109132072091330730913407DC01CB0158
:101E2000801B910BA20BB30B85369105A105B10563
:101E300008F4DFC18FE591E10E94EA2C60916F11F7
:101E4000862F846080936F116C608FE591E10E9412
:101E5000E82CC091E10FC23009F48AC018F4C130F7
:101E6000D1F0B7C1C33009F402C1C43009F0B1C127
:101E700067E176E08FE591E10E94592761E080E01B
:101E80000E946529609104028FE591E10E94792901
:101E900007E415E078C162E076E08FE591E10E9409
:101EA000592761E080E00E94652919DF8F3F2FEFFD
:101EB000920789F0883EE3E09E0730F0885E934009
:101EC0000E945E2966E403C00E945E296EE48FE5ED
:101ED00091E10E94522761E085E00E94652987E434
:101EE000E82E85E0F82EC0E0D0E010E0F701819107
:101EF0007F010E946B1CBC0177270C2E01C0660F6E
:101F00000A94EAF7612B162F2196C330D10571F799
:101F10008FE591E10E94792961E087E00E946529BF
:101F200089DE0E945E2961E08BE00E946529C3DCA6
:101F300090E00E947F2961E08DE00E9465298091F8
:101F4000E60F813049F40E948D256091ED118FE5F7
:101F500091E10E94522743C1823009F040C10E94A2
:101F6000DF248091EA119091EB110E947F2937C103
:101F700061E176E08FE591E10E945927B0DE8F3F65
:101F80002FEF920741F0883EE3E09E0710F0885E55
:101F900093400E945E2960E085E00E94652980E010
:101FA000A7D8873E934018F480E0A2D802C087EEFD
:101FB00093E00E945E2960E089E00E94652981E04B
:101FC00097D8873E934018F481E092D802C087EEFC
:101FD00093E00E945E2960E08DE00E94652982E026
:101FE00087D8873E934018F482E082D802C087EEFB
:101FF00093E00E945E2961E080E00E94652983E011
:1020000077D8873E934018F483E072D802C087EEF9
:1020100093E00E945E2961E084E00E94652984E0EB
:1020200067D8873E934018F484E062D802C087EEF8
:1020300093E00E945E2961E088E00E94652985E0C6
:1020400057D8873E934018F485E052D802C087EEF7
:1020500093E00E945E2961E08CE00E94652986E0A1
:1020600047D8873E934008F089C086E084C064E189
:1020700076E08FE591E10E94592731DE8F3F2FEF07
:10208000920741F0883EE3E09E0710F0885E93409F
:102090000E945E2960E085E00E94652987E028D8DB
:1020A000873E934018F487E023D802C087EE93E080
:1020B0000E945E2960E089E00E94652988E018D8C6
:1020C000873E934018F488E013D802C087EE93E06F
:1020D0000E945E2960E08DE00E94652989E008D8B1
:1020E000873E934018F489E003D802C087EE93E05E
:1020F0000E945E2961E080E00E9465298AE00E94DA
:102100007808873E934020F48AE00E94780802C055
:1021100087EE93E00E945E2961E084E00E946529D9
:102120008BE00E947808873E934020F48BE00E9469
:10213000780802C087EE93E00E945E2961E088E0A3
:102140000E9465298CE00E947808873E934020F425
:102150008CE00E94780802C087EE93E00E945E291E
:1021600061E08CE00E9465298DE00E947808873E3E
:10217000934020F48DE00E94780802C087EE93E03F
:102180000E945E292CC061E08C2F0E946529F80115
:1021900081918F010E946B1C682F8FE591E10E9455
:1021A0007929CE5FCA3079F760E08AE00E9465291C
:1021B00061E276E08FE591E10E94592761E08AE0D3
:1021C0000E946529A7D8682F8FE591E10E9479299F
:1021D00006C063E276E08FE591E10E9459270E94F4
:1021E000411E6093310770933207809333079093B9
:1021F0003407DF91CF911F910F91FF90EF900895D9
:102200006EDD8F3F2FEF920739F480E396E00E9456
:102210009C1F8AE00C941F20893E23E09207D0F097
:10222000885E93409F938F9388E396E09F938F936C
:102230001F9281E88F938DEC97E09F938F930E947C
:102240002F388DB79EB708960FB6F8949EBF0FBE75
:102250008DBF17C09F938F9380E496E09F938F93D9
:102260001F9281E88F938DEC97E09F938F930E944C
:102270002F388DB79EB708960FB6F8949EBF0FBE45
:102280008DBF8DEC97E00C949C1F1F920F920FB6A0
:102290000F9211240BB60F922F933F934F935F939E
:1022A0006F937F938F939F93AF93BF93EF93FF931E
:1022B0008091570781110EC01D9B0CC080915C0757
:1022C00090915D07A0915E07B0915F07892B8A2BE3
:1022D0008B2B89F18091580781110EC01F9B0CC078
:1022E0008091600790916107A0916207B0916307A8
:1022F000892B8A2B8B2B61F180915907811135C075
:102300001C9B33C08091640790916507A09166077C
:10231000B0916707892B8A2B8B2B39F50E94E41D1E
:1023200060936407709365078093660790936707CF
:102330000E94E02A1AC00E94E41D60935C0770931B
:102340005D0780935E0790935F070E94E02AC2CFEB
:102350000E94E41D60936007709361078093620799
:10236000909363070E94E02AC7CFFF91EF91BF913E
:10237000AF919F918F917F916F915F914F913F911D
:102380002F910F900BBE0F900FBE0F901F901895BE
:10239000CF92DF92EF92FF920F931F93CF93DF9331
:1023A0001F92CDB7DEB78091C50781110DC00E9485
:1023B000411E6093C1077093C2078093C307909337
:1023C000C40781E08093C5078091A7078823B1F0F7
:1023D0000E94411E0091C1071091C2072091C307BE
:1023E0003091C407AB01BC01401B510B620B730B56
:1023F00081E0453651056105710508F480E0809360
:10240000C007882319F18FE591E10E94EA2C69E465
:1024100076E08FE591E10E9459270CDC0E945E294D
:1024200062E576E08FE591E10E9459278091E40F03
:102430009091E50F0E945E290E94411E6093C107A2
:102440007093C2078093C3079093C4070E948A09C0
:10245000182F8F3F09F4C3C08091C007882379F0FB
:1024600061E080E00E94652965E576E08FE591E115
:102470000E945927612F8FE591E10E9479290E94DE
:10248000411E6B017C0180916A07882311F002E4F0
:1024900001C008EC812F90E08830910508F08BC0D6
:1024A000FC018827EE58FF4F8F4F0C9476340E9422
:1024B000411EDC01CB018C199D09AE09BF090A97A9
:1024C000A105B10508F077C0802F0E94F32EEFCF51
:1024D0000E94411EDC01CB018C199D09AE09BF0988
:1024E0000A97A105B10508F066C0802F0E94D82D7B
:1024F000EFCF0E94411EDC01CB018C199D09AE0972
:10250000BF090A97A105B10508F055C0802F0E94A8
:10251000AD2EEFCF0E94411EDC01CB018C199D092D
:10252000AE09BF090A97A105B10508F044C0802F84
:102530000E94902DEFCF0E94411EDC01CB018C192F
:102540009D09AE09BF090A97A105B105A0F5802F25
:102550000E94662EF0CF0E94411EDC01CB018C1937
:102560009D09AE09BF090A97A105B10520F5802F85
:102570000E94492DF0CF0E94411EDC01CB018C1935
:102580009D09AE09BF090A97A105B105A0F4802FE6
:102590000E94202EF0CF0E94411EDC01CB018C193D
:1025A0009D09AE09BF090A97A105B10520F4802F46
:1025B0000E94022DF0CF809102028C3411F08CE445
:1025C00001C082E580930202809101028C3411F0F7
:1025D0008CE401C082E5809301020C944A1B809137
:1025E000E60F823009F068C28091B80781110DC0F2
:1025F0000E94411E6093B4077093B5078093B6079D
:102600009093B70781E08093B8070E94411E009124
:10261000B4071091B5072091B6073091B707DC01D8
:10262000CB01801B910BA20BB30B4E97A105B105FB
:1026300010F40C944A1B0E94411E6093B4077093DF
:10264000B5078093B6079093B7070E94DF240091E7
:10265000EE111091EF11C090EA11D090EB11809122
:10266000AC0781110DC00E94411E6093A8077093B2
:10267000A9078093AA079093AB0781E08093AC07EA
:102680000F3F1F4F09F052C016D981114DC08091E4
:1026900002028E34A9F40E94411E0091A8071091F5
:1026A000A9072091AA073091AB07DC01CB01801B61
:1026B000910BA20BB30B4497A105B105A8F103C080
:1026C0008C3409F452C780915C0790915D07A0910A
:1026D0005E07B0915F07892B8A2B8B2B51F00F90EF
:1026E000DF91CF911F910F91FF90EF90DF90CF90EE
:1026F000A9C98091600790916107A0916207B0918C
:102700006307892B8A2B8B2B51F78091640790915B
:102710006507A0916607B0916707892B8A2B8B2BE1
:10272000F1F68AEB9FEF4AC7C12CD12C0E94BA2741
:1027300049EEC4164FEFD4065CF580915C0790918A
:102740005D07A0915E07B0915F07892B8A2B8B2BC9
:10275000C9F48091600790916107A0916207B091E0
:102760006307892B8A2B8B2B69F4809164079091E6
:102770006507A0916607B0916707892B8A2B8B2B81
:1027800009F41FC786E080935B07FAD88CE436C152
:1027900088EFC8168FEFD80634F580915C079091CA
:1027A0005D07A0915E07B0915F07892B8A2B8B2B69
:1027B00049F78091600790916107A0916207B091FD
:1027C0006307892B8A2B8B2BE9F680916407909104
:1027D0006507A0916607B0916707892B8A2B8B2B21
:1027E00089F682E8EFC629E0C216D1040CF0D7C002
:1027F00062D8882309F49EC0609177117091781196
:102800008091791190917A110E9461352091680729
:10281000309169072617370749F580915C07909139
:102820005D07A0915E07B0915F07892B8A2B8B2BE8
:10283000C9F48091600790916107A0916207B091FF
:102840006307892B8A2B8B2B69F480916407909105
:102850006507A0916607B0916707892B8A2B8B2BA0
:1028600009F4B3C610925B0780D88EC0621B730B4D
:10287000CB0188599E4F68E671E00E944F348E313B
:10288000910508F454C0843B910538F580915C07AC
:1028900090915D07A0915E07B0915F07892B8A2B0D
:1028A0008B2BC9F48091600790916107A09162071A
:1028B000B0916307892B8A2B8B2B69F48091640775
:1028C00090916507A0916607B0916707892B8A2BC5
:1028D0008B2B09F47EC6B6D857C08A34914038F5A0
:1028E00080915C0790915D07A0915E07B0915F07B2
:1028F000892B8A2B8B2B79F7809160079091610748
:10290000A0916207B0916307892B8A2B8B2B19F753
:102910008091640790916507A0916607B091670761
:10292000892B8A2B8B2BB9F68AEB9FEF54C6C901F2
:102930004CD92AC080915C0790915D07A0915E07F9
:10294000B0915F07892B8A2B8B2BC9F4809160078C
:1029500090916107A0916207B0916307892B8A2B40
:102960008B2B69F48091640790916507A0916607AD
:10297000B0916707892B8A2B8B2B09F42FC61092F5
:102980005B078EE4809302020E94411E6093A807B9
:102990007093A9078093AA079093AB0758C088E16A
:1029A000C816D10474F580915C0790915D07A091E1
:1029B0005E07B0915F07892B8A2B8B2BC9F480911E
:1029C000600790916107A0916207B0916307892B1E
:1029D0008A2B8B2B69F48091640790916507A091F5
:1029E0006607B0916707892B8A2B8B2B09F4FAC5F0
:1029F00082E080935B070E94C00C82E58093020214
:102A000026C080915C0790915D07A0915E07B09110
:102A10005F07892B8A2B8B2B59F780916007909148
:102A20006107A0916207B0916307892B8A2B8B2BDA
:102A3000F9F68091640790916507A0916607B091BF
:102A40006707892B8A2B8B2B99F686E9CCC5809159
:102A5000A707882309F41EC66CE576E082EA90E1B8
:102A60000E9459270D2C000CEE08FF08F7FE0EC03F
:102A70006DE282EA90E10E94522744275527BA016D
:102A80004C195D096E097F092AE003C02AE0B701ED
:102A9000A60182EA90E10E940A2760EA75E082EAD4
:102AA00090E10F90DF91CF911F910F91FF90EF90E8
:102AB000DF90CF900C94DE2112D97C018F3F2FEF55
:102AC000920769F4EBE6F7E0019111910F3F4FEFA8
:102AD000140731F487E0E73AF807B1F701C08C0139
:102AE000C801885E934087312CEF920720F48C0157
:102AF000DD24D39401C0D12C8091C0078823D1F06C
:102B000061E080E00E94652964E676E08FE591E16E
:102B10000E9459270F3F4FEF140761F0C8010E9430
:102B20005E29DD2011F066E401C06EE48FE591E1DD
:102B30000E94522780916A07882321F09CE3C92EC6
:102B400095E303C084EBC82E90EA043B110509F419
:102B500039C3F0F40C33110509F488C260F40F3066
:102B6000110509F404C20E31110509F434C2012B18
:102B700009F02EC230C00837110509F4A5C2063984
:102B8000110509F4CDC20A35110509F021C26EC242
:102B90000C3281E0180709F439C470F4003F1105C4
:102BA00009F4B8C30E3041E0140709F4DEC3023D56
:102BB000110509F00DC284C3093581E0180709F435
:102BC0009AC40F3F2FEF120709F4BDC40A34114015
:102BD00009F0FEC146C499830E945B0C9981882349
:102BE00009F495C18091E60F823009F09FC0609191
:102BF0007711709178118091791190917A110E94DA
:102C0000613520916807309169072617370741F52C
:102C100080915C0790915D07A0915E07B0915F077E
:102C2000892B8A2B8B2BC9F48091600790916107C7
:102C3000A0916207B0916307892B8A2B8B2B69F4D3
:102C40008091640790916507A0916607B09167072E
:102C5000892B8A2B8B2B09F4E8C40E94B50C85C103
:102C6000621B730BCB0188599E4F68E671E00E948E
:102C70004F348E31910508F455C0843B910540F5E1
:102C800080915C0790915D07A0915E07B0915F070E
:102C9000892B8A2B8B2BC9F4809160079091610757
:102CA000A0916207B0916307892B8A2B8B2B69F463
:102CB0008091640790916507A0916607B0916707BE
:102CC000892B8A2B8B2B09F491C40E94220D4DC1B4
:102CD0008A34914038F580915C0790915D07A0910E
:102CE0005E07B0915F07892B8A2B8B2B71F7809140
:102CF000600790916107A0916207B0916307892BEB
:102D00008A2B8B2B11F78091640790916507A09116
:102D10006607B0916707892B8A2B8B2BB1F68AEB5C
:102D20009FEF66C4C9010E94E50D1FC1813009F003
:102D30006FCF0E948D251091ED118091C0078823DF
:102D400049F061E08CE00E946529612F8FE591E1F7
:102D50000E9452271C3459F024F41B3409F45BC040
:102D600004C11E3409F480C0123551F1FEC08091B7
:102D70005C0790915D07A0915E07B0915F07892B7A
:102D80008A2B8B2BC9F48091600790916107A091E9
:102D90006207B0916307892B8A2B8B2B69F4809192
:102DA000640790916507A0916607B0916707892B2A
:102DB0008A2B8B2B09F41FC40E94C00C8CE428C002
:102DC00080915C0790915D07A0915E07B0915F07CD
:102DD000892B8A2B8B2BC9F4809160079091610716
:102DE000A0916207B0916307892B8A2B8B2B69F422
:102DF0008091640790916507A0916607B09167077D
:102E0000892B8A2B8B2B09F4FDC30E94C00C82E511
:102E100080930102AAC080915C0790915D07A09108
:102E20005E07B0915F07892B8A2B8B2B09F015CF9A
:102E30008091600790916107A0916207B09163074C
:102E4000892B8A2B8B2B09F008CF809164079091F6
:102E50006507A0916607B0916707892B8A2B8B2B9A
:102E600009F0FBCE84EBE2C3809101028C3441F582
:102E700080915C0790915D07A0915E07B0915F071C
:102E8000892B8A2B8B2B09F070C080916007909161
:102E90006107A0916207B0916307892B8A2B8B2B66
:102EA00009F063C08091640790916507A09166075F
:102EB000B0916707892B8A2B8B2B09F4AAC355C0C5
:102EC00080915C0790915D07A0915E07B0915F07CC
:102ED000892B8A2B8B2B09F048C080916007909139
:102EE0006107A0916207B0916307892B8A2B8B2B16
:102EF000E1F58091640790916507A0916607B09114
:102F00006707892B8A2B8B2B09F488C32EC040912D
:102F10005C0750915D0760915E0770915F07452BDC
:102F2000462B472B01F54091600750916107609156
:102F3000620770916307452B462B472BA1F4409104
:102F40006407509165076091660770916707452B8C
:102F5000462B472B41F4DD2009F46DC38C2D0E94D4
:102F6000F32E10925B070E94C00C8EE42FC080915C
:102F70005C0790915D07A0915E07B0915F07892B78
:102F80008A2B8B2B01F58091600790916107A091AE
:102F90006207B0916307892B8A2B8B2BA1F4809158
:102FA000640790916507A0916607B0916707892B28
:102FB0008A2B8B2B41F4D11040C380EA0E94D82D7C
:102FC00081E080935B070E94C00C82E5809302023F
:102FD000E5EAF7E0BDC280915C0790915D07A091A2
:102FE0005E07B0915F07DD20F1F0892B8A2B8B2BD8
:102FF00051F78091600790916107A0916207B091AD
:103000006307892B8A2B8B2BF1F6809164079091B3
:103010006507A0916607B0916707892B8A2B8B2BD8
:1030200091F68C2DCBCF892B8A2B8B2B61F680913F
:10303000600790916107A0916207B0916307892BA7
:103040008A2B8B2B09F0BFCF809164079091650785
:10305000A0916607B0916707892B8A2B8B2B09F00B
:10306000B2CF8C2D0E94AD2E82E0ABCF80915C0759
:1030700090915D07A0915E07B0915F07DD2071F12F
:10308000892B8A2B8B2B19F00E94CB0C9ECF809121
:10309000600790916107A0916207B0916307892B47
:1030A0008A2B8B2B89F78091640790916507A091FB
:1030B0006607B0916707892B8A2B8B2B29F78C2DFC
:1030C0000E94AD2E82E0BBC280915C0790915D07AB
:1030D000A0915E07B0915F07DD2061F1892B8A2BFB
:1030E0008B2B91F68091600790916107A091620708
:1030F000B0916307892B8A2B8B2B31F68091640763
:1031000090916507A0916607B0916707892B8A2B7C
:103110008B2B09F0B9CF8C2D0E94902D83E08FC2AC
:1031200080915C0790915D07A0915E07B0915F0769
:10313000DD2021F1892B8A2B8B2B09F0A5CF8091E3
:10314000600790916107A0916207B0916307892B96
:103150008A2B8B2B09F098CF80916407909165079B
:10316000A0916607B0916707892B8A2B8B2B09F0FA
:103170008BCF8C2D0E94662E84E061C2892B8A2B16
:103180008B2B09F081CF8091600790916107A0910E
:103190006207B0916307892B8A2B8B2B09F074CFC0
:1031A0008091640790916507A0916607B0916707C9
:1031B000892B8A2B8B2B09F067CF8C2D0E94492DF0
:1031C00085E03DC2DD2041F180915C0790915D0773
:1031D000A0915E07B0915F07892B8A2B8B2B09F09A
:1031E000B4C18091600790916107A0916207B0918E
:1031F0006307892B8A2B8B2B09F0A7C18091640769
:1032000090916507A0916607B0916707892B8A2B7B
:103210008B2B09F417C299C1809102028C3441F5BD
:1032200080915C0790915D07A0915E07B0915F0768
:10323000892B8A2B8B2B09F088C180916007909194
:103240006107A0916207B0916307892B8A2B8B2BB2
:1032500009F07BC18091640790916507A091660792
:10326000B0916707892B8A2B8B2B09F4F0C16DC1B4
:1032700080915C0790915D07A0915E07B0915F0718
:10328000892B8A2B8B2B09F060C18091600790916C
:103290006107A0916207B0916307892B8A2B8B2B62
:1032A00009F053C18091640790916507A09166076A
:1032B000B0916707892B8A2B8B2B09F4CDC145C1AF
:1032C00080915C0790915D07A0915E07B0915F07C8
:1032D000D1102AC0892B8A2B8B2BC9F480916007CF
:1032E00090916107A0916207B0916307892B8A2BA7
:1032F0008B2B69F48091640790916507A091660714
:10330000B0916707892B8A2B8B2B09F4ACC10E94E3
:10331000CB0CA5C080915C0790915D07A0915E07E2
:10332000B0915F07D1104EC0892B8A2B8B2B79F778
:103330008091600790916107A0916207B091630747
:10334000892B8A2B8B2B19F7809164079091650745
:10335000A0916607B0916707892B8A2B8B2BB9F652
:103360008C2D0E94662E84E082C180915C07909132
:103370005D07A0915E07B0915F07DD2019F1892BF1
:103380008A2B8B2B21F68091600790916107A09189
:103390006207B0916307892B8A2B8B2B09F0B7CF7B
:1033A0008091640790916507A0916607B0916707C7
:1033B000892B8A2B8B2B09F0AACF8C2D0E94202ED3
:1033C00086E055C1892B8A2B8B2B09F0A0CF8091E9
:1033D000600790916107A0916207B0916307892B04
:1033E0008A2B8B2B09F093CF80916407909165070E
:1033F000A0916607B0916707892B8A2B8B2B09F068
:1034000086CF8C2D0E94492D85E031C180915C07CB
:1034100090915D07A0915E07B0915F07D11049C000
:10342000892B8A2B8B2BC9F48091600790916107BF
:10343000A0916207B0916307892B8A2B8B2B69F4CB
:103440008091640790916507A0916607B091670726
:10345000892B8A2B8B2B09F40DC10E94C00C8CE4A4
:10346000B5CD80915C0790915D07A0915E07B0910A
:103470005F07DD20F1F0892B8A2B8B2B71F7809170
:10348000600790916107A0916207B0916307892B53
:103490008A2B8B2B11F78091640790916507A0917F
:1034A0006607B0916707892B8A2B8B2BB1F68C2D81
:1034B000EBC0892B8A2B8B2B81F680916007909132
:1034C0006107A0916207B0916307892B8A2B8B2B30
:1034D00021F68091640790916507A0916607B091ED
:1034E0006707892B8A2B8B2B09F0B7CF8C2D0E9475
:1034F000202E86E0C3C080915C0790915D07A0916B
:103500005E07B0915F07892B8A2B8B2B09F0A5CF23
:103510008091600790916107A0916207B091630765
:10352000892B8A2B8B2B09F098CF8091640790917F
:103530006507A0916607B0916707892B8A2B8B2BB3
:1035400009F49FC08ACF0E94E02A0E94CB0C40CD94
:10355000929182919383828387E0EB36F807C1F7DB
:10356000F0926C07E0926B0795C080915C07909198
:103570005D07A0915E07B0915F07892B8A2B8B2B8B
:1035800009F0ADC88091600790916107A091620732
:10359000B0916307892B8A2B8B2B09F0A0C88091EF
:1035A000640790916507A0916607B0916707892B22
:1035B0008A2B8B2B09F093C886E490E00E94F12CB3
:1035C0008EC886E90E94202EDDC886E90E94F32E6F
:1035D00049C986E490E00E94F12C7DC986E90E94E9
:1035E000F32ECDC982E80E94AD2E02CA86E490E097
:1035F0000E94F12C6ACB86E90E94202E86E08093FF
:103600005B07DACB86E90E94AD2E82E080935B07F0
:10361000FCCB86E90E94492D85E004C086E90E9422
:10362000902D83E080935B07A0CC8C2D0E94F32E1D
:1036300010925B0712CB892F92CC84EBBFCC809386
:103640005B0722CD8C2D0E94662E84E009C08C2D54
:103650000E94902D83E004C08C2D0E94492D85E0AE
:1036600080935B0772CF8C2D0E94902D83E0809316
:103670005B074DCE8C2D0E94492D85E080935B0722
:10368000ECCED11005C080EA0E94022D87E0F6CF73
:1036900084EBFACF0F90DF91CF911F910F91FF90A4
:1036A000EF90DF90CF900895FC01918D828D981757
:1036B00061F0828DDF01A80FB11D5D968C91928D16
:1036C0009F5F9F73928F90E008958FEF9FEF089513
:1036D000FC01918D828D981731F0828DE80FF11DDC
:1036E000858D90E008958FEF9FEF0895FC01918DF7
:1036F000228D892F90E0805C9F4F821B91098F73F0
:103700009927089580E090E0892B21F00E946A2497
:10371000811125C080E090E0892B41F080E090E0AD
:10372000892B21F00E94000081111CC080E090E0F4
:10373000892B41F080E090E0892B21F00E9400006D
:10374000811113C080E090E0892BA1F080E090E02F
:10375000892B81F00E94000081110AC008950E9407
:103760000000D8CF0E940000E1CF0E940000EACF05
:103770000C940000089590E0FC013197E231F105CE
:1037800008F04EC08827E658FF4F8F4F0C947634D0
:10379000809180008F7703C0809180008F7D80931F
:1037A0008000089580918000877FF9CF84B58F775E
:1037B00002C084B58F7D84BD08958091B0008F775D
:1037C00003C08091B0008F7D8093B00008958091F8
:1037D00090008F7707C0809190008F7D03C080910B
:1037E0009000877F8093900008958091A0008F774C
:1037F00007C08091A0008F7D03C08091A000877FCB
:103800008093A0000895809120018F7707C0809158
:1038100020018F7D03C080912001877F809320014C
:10382000089585ED8093BC008091BC0084FDFCCFA1
:10383000109280100895CF93DF93FC01C28DD38D39
:10384000209729F1248D2330B9F028F4213079F024
:10385000223069F01CC02430A9F02730C1F4099649
:103860000E944F3E688379838A839B8310C00996A8
:103870000E94523E88830BC009960E94523E998353
:10388000888305C009960E946F3E79836883DF9123
:10389000CF910895FC01848DDF01A80FB11DA35ABB
:1038A000BF4F2C91848D90E001968F739927848F60
:1038B000A689B7892C93A089B1898C9180648C9357
:1038C000938D848D981306C00288F389E02D808142
:1038D0008F7D80830895CF93DF93282F30E0F90107
:1038E000ED5FFD4F8491F901ED59FD4FD491F90140
:1038F000E755FD4FC491CC2389F081113CDFEC2FBB
:10390000F0E0EE0FFF1FE751FE4FA591B491EC914F
:10391000ED2381E090E021F480E002C080E090E0BF
:10392000DF91CF9108951F93CF93DF93282F30E03D
:10393000F901ED5FFD4F8491F901ED59FD4FD491EF
:10394000F901E755FD4FC491CC23C1F0162F811129
:1039500012DFEC2FF0E0EE0FFF1FE153FE4FA591B9
:10396000B4918FB7F894111105C09C91ED2FE0959B
:10397000E92302C0EC91ED2BEC938FBFDF91CF9147
:103980001F910895CF93DF9390E0FC01ED59FD4F17
:103990002491FC01E755FD4F8491882361F190E06B
:1039A000880F991FFC01E75BFD4FC591D491FC0185
:1039B000E153FE4FA591B491611109C09FB7F894EE
:1039C0008881209582238883EC912E230BC062305E
:1039D00061F49FB7F8943881822F80958323888380
:1039E000EC912E2B2C939FBF06C08FB7F894E881E3
:1039F0002E2B28838FBFDF91CF9108951F93CF93F4
:103A0000DF93182FEB0161E0BDDF209711F460E038
:103A100004C0CF3FD10531F461E0812FDF91CF9118
:103A20001F9181CFE12FF0E0ED5FFD4FE4914E2F2C
:103A300050E0FA013197E231F10508F09DC0882786
:103A4000E457FF4F8F4F0C94763484B5806884BD63
:103A5000C7BD97C084B5806284BDC8BD92C0809147
:103A60008000806880938000D0938900C093880094
:103A700088C080918000806280938000D0938B000A
:103A8000C0938A007EC0809180008860809380000F
:103A9000D0938D00C0938C0074C08091B00080687A
:103AA0008093B000C093B3006CC08091B00080627E
:103AB0008093B000C093B40064C08091900080688F
:103AC00080939000D0939900C09398005AC0809141
:103AD0009000806280939000D0939B00C0939A00E6
:103AE00050C080919000886080939000D0939D009A
:103AF000C0939C0046C08091A00080688093A00085
:103B00008091A0008F7B8093A000D093A900C093E8
:103B1000A80037C08091A00080628093A000D0935D
:103B2000AB00C093AA002DC08091A0008860809354
:103B3000A000D093AD00C093AC0023C080912001C1
:103B4000806880932001D0932901C093280119C077
:103B500080912001806280932001D0932B01C0933B
:103B60002A010FC080912001886080932001D093AA
:103B70002D01C0932C0105C0C038D1050CF04CCFED
:103B800046CFDF91CF911F910895863308F0865379
:103B900090917B00282F2870977F922B90937B0029
:103BA0008770806480937C0080917A008064809329
:103BB0007A0080917A0086FDFCCF80917800209178
:103BC000790090E0922B08953FB7F8948091DB0F35
:103BD0009091DC0FA091DD0FB091DE0F26B5A89B70
:103BE00005C02F3F19F00196A11DB11D3FBFBA2F8F
:103BF000A92F982F8827820F911DA11DB11DBC01EF
:103C0000CD0142E0660F771F881F991F4A95D1F7B3
:103C100008958F929F92AF92BF92CF92DF92EF92D0
:103C2000FF926B017C01D0DF4B015C01C114D10418
:103C3000E104F104E9F0C8DFDC01CB01881999093E
:103C4000AA09BB09883E9340A105B10578F321E09C
:103C5000C21AD108E108F10888EE880E83E0981EA8
:103C6000A11CB11CC114D104E104F10421F7DECF81
:103C7000FF90EF90DF90CF90BF90AF909F908F908C
:103C800008952FB7F8946091D70F7091D80F809155
:103C9000D90F9091DA0F2FBF08951F920F920FB690
:103CA0000F9211242F933F938F939F93AF93BF93C2
:103CB0008091D70F9091D80FA091D90FB091DA0FC2
:103CC0003091D60F23E0230F2D3720F40196A11D4C
:103CD000B11D05C026E8230F0296A11DB11D20933A
:103CE000D60F8093D70F9093D80FA093D90FB0938E
:103CF000DA0F8091DB0F9091DC0FA091DD0FB09176
:103D0000DE0F0196A11DB11D8093DB0F9093DC0F98
:103D1000A093DD0FB093DE0FBF91AF919F918F9174
:103D20003F912F910F900FBE0F901F901895CF933A
:103D3000DF93EC01862F688360E024DE8881CBDD91
:103D400089831B821A821D821C821F821E82198611
:103D50001886DF91CF9108954F925F926F927F9274
:103D60008F929F92AF92BF92CF92DF92EF92FF928B
:103D70000F931F93CF93DF93CDB7DEB729970FB67D
:103D8000F894DEBF0FBECDBF6B01642E9E012F5F86
:103D90003F4F590129E0F50111922A95E9F748E0D2
:103DA00050E0BC01C5010E9420387090950806E9DA
:103DB00018E0E12CF12CE714E0F447012801B801E8
:103DC000C5010E941038FFEFEF1AFF0A035E1F4F74
:103DD000892B89F78DE1889DF001899DF00D1124D3
:103DE000EA56F74FD38EC28E648EC20124DD80E086
:103DF00001C082E029960FB6F894DEBF0FBECDBF9A
:103E0000DF91CF911F910F91FF90EF90DF90CF90B6
:103E1000BF90AF909F908F907F906F905F904F90EA
:103E200008955F926F927F928F929F92AF92BF920E
:103E3000CF92DF92EF92FF920F931F93CF93DF9376
:103E4000CDB7DEB7A6970FB6F894DEBF0FBECDBFD5
:103E50004B016E012EE1C20ED11C29E0F601119238
:103E60002A95E9F748E050E0BC01C6010E942038DD
:103E70001091950886E9E82E88E0F82EA12CB12C47
:103E8000A11600F535015E2C0F2DB701C6010E9469
:103E90001038FFEFAF1ABF0A2DE1E20EF11C892B9B
:103EA00079F72DE1269DC001279D900D112440E159
:103EB00050E0B4018156974F0E942038852D902FF5
:103EC000BADC21C0103409F1B601CE0101960E947E
:103ED000193840E150E0B401CE010A960E94203822
:103EE0001A8E1C8E1B8E1D8E8DE1819FD001112498
:103EF000AA56B74FFE01319601900D928A95E1F7CF
:103F00001F5F1093950880E001C081E0A6960FB670
:103F1000F894DEBF0FBECDBFDF91CF911F910F91FF
:103F2000FF90EF90DF90CF90BF90AF909F908F90D9
:103F30007F906F905F900895CF93DF932091DF0F74
:103F40003091E00F232B51F0EC018991882331F05F
:103F5000E091DF0FF091E00F1995F7CFDF91CF914E
:103F60000895E82FF0E0EE0FFF1FE953FE4F659133
:103F7000749140E850E08DEC97E00E94953E8DEC06
:103F800097E0DACFEF92FF920F931F93CF93DF93D7
:103F9000CDB7DEB76A970FB6F894DEBF0FBECDBFC0
:103FA0008E010E5E1F4F89E0F80111928A95E9F7A4
:103FB000CE0101967C0181E1F70111928A95E9F722
:103FC0001F930F938AE696E09F938F938091E30F60
:103FD0008F938091E20F8F930E946B380F900F9018
:103FE0000F900F900F900F90019711F083E019C080
:103FF000FF92EF928EE696E09F938F938091E30F6E
:104000008F938091E20F8F930E946B380F900F90E7
:104010000F900F900F900F90019741F7B701C801D3
:1040200000DF9FDF6A960FB6F894DEBF0FBECDBFEC
:10403000DF91CF911F910F91FF90EF900895E09144
:10404000DF0FF091E00F309709F019940895CF93A6
:10405000DF93C0E0DDE180919508C81750F4DC9F44
:10406000C00111248A56974F67DF8AE0E8DFCF5FEF
:10407000F2CFDF91CF910895CF93DF93C0E0DBE0E3
:1040800080910502C81778F4DC9FC00111248A5F73
:104090009D4FFC0121853285232B19F04DDF8AE0ED
:1040A000CEDFCF5FEDCFDF91CF9108954F925F923A
:1040B0006F927F928F929F92AF92BF92CF92DF9238
:1040C000EF92FF920F931F93CF93DF93CDB7DEB79D
:1040D00062970FB6F894DEBF0FBECDBF89E0F82E11
:1040E0008E01065F1F4FF8018F2D11928A95E9F717
:1040F0001F930F938AE696E09F938F938091E30F2F
:104100008F938091E20F8F930E946B380F900F90E6
:104110000F900F900F900F90019719F083E021DF1F
:10412000B9C0FE0131966F011192FA94E9F748E0A7
:1041300050E0B801C6010E942038B090950806E909
:1041400018E020E030E02B1508F099C07901B801A3
:10415000C6010E94103897012F5F3F4F035E1F4F2B
:10416000892B89F72DE12E9DC0012F9D900D1124E3
:10417000DC01AA56B74F5A96ED91FC915B973097A8
:1041800009F473C05C962C912330A9F040F42130DF
:1041900059F0223009F069C020811F9221C02430DB
:1041A000E1F0273009F161C02081422F022E000C7E
:1041B000550B5F9303C021812F9320812F9329E218
:1041C00037E03F932F931F9220E12F938156974F13
:1041D0009F938F930E942F3843C021812F9320817A
:1041E0002F9322E835E0EDCF4080518062807380CC
:1041F000C301B2010E945B354B015C01072E000C2C
:10420000880B990B0E944D409B01AC01C301B20188
:104210000E947E3420E030E048EC52E40E94AC4042
:104220000E945B359B0177FF04C022273327261BA2
:10423000370B3F932F939F928F9287E796E09F9340
:104240008F931F9280E18F932DE12E9DC0012F9DB2
:10425000900D11248156974F9F938F930E942F3872
:104260000FB6F894DEBF0FBECDBF8DE18E9D8001ED
:104270008F9D100D11240156174F80E003C000E000
:1042800010E082E06EDE0115110521F0C80154DE58
:104290008AE0D5DE62960FB6F894DEBF0FBECDBFC2
:1042A000DF91CF911F910F91FF90EF90DF90CF9012
:1042B000BF90AF909F908F907F906F905F904F9046
:1042C00008956F927F928F929F92AF92BF92CF92FA
:1042D000DF92EF92FF921F93CF93DF93CDB7DEB7BC
:1042E00064970FB6F894DEBF0FBECDBF4B017E01C1
:1042F0002CE0E20EF11C29E0F70111922A95E9F772
:1043000048E050E0BC01C7010E942038109105022E
:1043100086E0A82E82E0B82EC12CD12CC116C0F4A4
:104320003601B501C7010E941038FFEFCF1ADF0A2E
:104330002BE0A20EB11C892B89F78BE0869DF00142
:10434000879DF00D1124EA5FFD4F9286818618C08B
:104350001434C1F09B868A86B701CE0101960E9473
:1043600019388BE0819FD0011124AA5FBD4FFE0157
:10437000319601900D928A95E1F71F5F1093050227
:1043800080E001C081E064960FB6F894DEBF0FBEF6
:10439000CDBFDF91CF911F91FF90EF90DF90CF9035
:1043A000BF90AF909F908F907F906F9008958EBD3B
:1043B00000000DB407FEFDCF8EB50895611571059F
:1043C00079F0FB0101900020E9F73197AF01461B1E
:1043D000570BDC01ED91FC910280F381E02D1994E3
:1043E00080E090E008951F920F920FB60F92112473
:1043F0000BB60F922F933F934F935F936F937F93DF
:104400008F939F93AF93BF93EF93FF938091B900E6
:10441000887F803609F49CC068F5883209F45BC057
:1044200090F4803109F454C038F4882309F4F6C0BC
:10443000883009F44DC0F5C0883109F44CC0803291
:1044400009F45DC0EEC0803409F468C048F48033DC
:1044500009F455C0883309F0E4C080937E10D8C0B9
:10446000803509F44FC0883509F45DC0883409F0FF
:10447000D8C0D6C0883909F4C7C0A8F4883709F471
:1044800067C038F4883609F463C0803709F460C027
:10449000C8C0883809F4B8C0803909F45FC08038D2
:1044A00009F0BFC05BC0803B09F486C038F4803A95
:1044B00009F466C0883A09F47FC0B3C0803C09F4AF
:1044C000A7C0883C09F4A4C0883B09F48AC0A9C0ED
:1044D00080915B1010C090917D1080917C10981796
:1044E00070F5E0917D1081E08E0F80937D10F0E0FB
:1044F000E45AFF4E80818093BB0085EC86C0809398
:104500007E108EC0E0917D1081E08E0F80937D1033
:104510008091BB00F0E0E45AFF4E808390917D10C3
:1045200080917C106EC0E0917D1081E08E0F8093B1
:104530007D108091BB00F0E0E45AFF4E80838091B3
:104540007F1081116DC081E080935A1084EA61C0B0
:1045500083E08093801010929408CFCF80919408CC
:10456000803208F051C0E091940881E08E0F809372
:1045700094088091BB00F0E0EC58F74F8083BDCFEA
:1045800085EC8093BC00109280108091940880325A
:1045900030F4E0919408F0E0EC58F74F108260910D
:1045A000940870E0E0917208F091730884E798E055
:1045B00019951092940835C084E080938010109271
:1045C000710810927008E0916E08F0916F081995CB
:1045D00080917008811105C081E08093700810926D
:1045E0004E08E091710881E08E0F80937108F0E031
:1045F000E25BF74F80818093BB00909171088091BE
:104600007008981708F479CF85E88093BC0009C03A
:1046100085EC8093BC001092801003C010927E1035
:1046200000D9FF91EF91BF91AF919F918F917F91B1
:104630006F915F914F913F912F910F900BBE0F9013
:104640000FBE0F901F90189540917008262F30E0F4
:10465000240F311D21323105DCF4209180102430EB
:10466000C9F4FC0180E090E0861758F4309170089E
:104670002191DC01A25BB74FA30FB11D2C930196D2
:10468000F3CF80917008680F6093700880E0089500
:1046900081E0089582E00895CF92DF92EF92FF9239
:1046A0000F931F93CF93DF936C017A018B01C0E0CE
:1046B000D0E0CE15DF0589F0D8016D918D01D601CE
:1046C000ED91FC910190F081E02DC6011995892BA7
:1046D00011F47E0102C02196ECCFC701DF91CF918A
:1046E0001F910F91FF90EF90DF90CF9008958F92E0
:1046F0009F92AF92BF92CF92DF92EF92FF920F9371
:104700001F93CF93DF938091DB11811134C00FEFA2
:104710001FEF26D6EC01009759F4012B11F08E0102
:10472000F8CF83E290E00197F1F780E090E0C5C018
:1047300085352AEA920741F405351A4A81F7109225
:10474000DD111092DC1119C08635EAEA9E0751F49A
:1047500005351A4A21F781E090E09093DD118093AE
:10476000DC110BC08A3A9545D1F68FE796E002D569
:1047700080E01DDED4CF1092DB111092DF11109279
:10478000DE110CE0EE24E394F12C8091DE11909187
:10479000DF118238910508F090C0E2D5EC0120913C
:1047A000DE113091DF11C5358AEAD80741F481E086
:1047B0008093DB111092DD111092DC110DC0C63513
:1047C000EAEADE0759F481E08093DB1181E090E0B2
:1047D0009093DD118093DC11C9016FC02097E1F344
:1047E0004091E0115091E11142175307B0F49A0142
:1047F000225E3F4F3093E1112093E011029FB00100
:10480000039F700D11248091A3119091A4110E9417
:104810001E379093A4118093A3112091DE11309143
:10482000DF11029FC001039F900D1124C090A311BE
:10483000D090A411C80ED91E4601A12CB12C10E0B5
:104840008091DC119091DD11892B31F4153021F428
:10485000F601138612860AC083D5A80EB91EF4018C
:10486000819391934F011F5F163051F7CA15DB05F5
:1048700051F48091DE119091DF1101969093DF1138
:104880008093DE1103C087E896E074D469D585353E
:10489000FAEA9F0729F41092DD111092DC1175CF0E
:1048A00086359A4A29F4F092DD11E092DC116DCF41
:1048B0008091DE119091DF1100C0DF91CF911F91A7
:1048C0000F91FF90EF90DF90CF90BF90AF909F90AF
:1048D0008F90089582EA90E10E94761B21E0892B57
:1048E00009F420E0822F08950E940238EF92FF928F
:1048F0000F931F93CF93DF93EC0181E0888F9B8D03
:104900008C8D981305C0E889F989808185FD24C0C4
:10491000F62E0B8D10E00F5F1F4F0F731127E02E47
:104920008C8DE8120CC00FB607FCFACFE889F98924
:10493000808185FFF5CFCE010E944A1CF1CF8B8D7F
:10494000FE01E80FF11DE35AFF4FF0820B8FEA8959
:10495000FB898081806207C0EE89FF896083E889D6
:10496000F98980818064808381E090E0DF91CF913C
:104970001F910F91FF90EF900895CF93DF93EC017B
:10498000888D8823C9F0EA89FB89808185FD05C06F
:10499000A889B9898C9186FD0FC00FB607FCF5CFA9
:1049A000808185FFF2CFA889B9898C9185FFEDCFF1
:1049B000CE010E944A1CE7CFDF91CF910895BF92AC
:1049C000CF92DF92EF92FF920F931F93CF93DF93DB
:1049D0001092E2111092E4111092E5118EE480938E
:1049E000ED118FEF9FEF9093EF118093EE111092E6
:1049F000EB111092EA111092EC1179DE009709F494
:104A000082C0E091A311F091A4116091E31170E0D4
:104A1000DF019C0140E050E0CCE0BC2ECD91DC9168
:104A20001197C617D70741F52817390721F1B29E0C
:104A3000E001B39ED00D1124CE0FDF1F1696CD904E
:104A4000DC9017971896ED90FC901997CE9C8001FA
:104A5000CF9C100DDE9C100D1124EE80FF80C884C9
:104A6000D984EC9CE001ED9CD00DFC9CD00D112470
:104A7000C017D10708F49A014F5F5F4F1C96481783
:104A8000590761F624173507F1F14CE0429FC00148
:104A9000439F900D1124E80FF91FC681D781E08450
:104AA000F18422813381205A310946E4429FC001BA
:104AB000439F900D112460E471E00E946334709371
:104AC000EB116093EA11A091E811B091E91120E88F
:104AD0003BE848E050E00E947F412EE739E040E0AB
:104AE00050E00E948941CA01B90187010C171D07D6
:104AF00008F48E01980140E050E00E948941309313
:104B0000EF112093EE11DF91CF911F910F91FF9044
:104B1000EF90DF90CF90BF9008954F925F926F9289
:104B20007F928F929F92BF92CF92DF92EF92FF92ED
:104B30000F931F93CF93DF9300D0CDB7DEB71092C2
:104B4000E2111092E4111092E5118EE48093ED11C0
:104B50008FEF9FEF9093EF118093EE111092EC1175
:104B6000C6DD89838A838B83882309F440C1009141
:104B7000A3111091A4116091E311862E912C982F0E
:104B8000282FF801B82E30E0408151814815590591
:104B900051F5E680F780A085B185EA9EA001EB9EE5
:104BA000500DFA9E500D112444365105E0F0B81610
:104BB00009F4E0C0D8016CE0B69EA00DB11D11242F
:104BC0001696CD90DC9017971896ED90FC9019975B
:104BD000CE9CD001CF9CB00DDE9CB00D1124A4174B
:104BE000B50708F4C7C03F5F3C96381768F2BB8230
:104BF0009A832983FE0131967F01DE2E23E0C22EA7
:104C0000CE0E2191281709F440C09091E2119F5FC8
:104C10009093E211D8013CE0239FA00DB11D112417
:104C200018962C9118979091EC11920F9093EC118B
:104C300012962D913C91139716964D915C91179772
:104C4000DA01B695A795BD01620F731F603A710531
:104C500030F49091E411490F4093E41116C02A1BDF
:104C60003B0BA091E511213A310520F04A0F40930A
:104C7000E5110BC09091E4119056921B9093E411B2
:104C800040E64A0F640F6093E511CE12BACFC09090
:104C9000E211CC2009F4ABC08091EC116C2D0E9484
:104CA0004334B82E8093EC118090E6119090E71178
:104CB000D40120E83BE848E050E00E947F412EE725
:104CC00039E040E050E00E9489414B2C512C612C8E
:104CD000712CCA01B901A30192010E94894130934C
:104CE000EF112093EE112091E8113091E911B29E5D
:104CF000C001B39E900D1124B4010E944F34862F41
:104D0000869590E060EA70E0681B790B80569F4FB3
:104D10002E2D2D192C15E8F4F70121917F01F801B2
:104D20003CE0239FE00DF11D112422813381468157
:104D3000578156954795F901E41BF50B6E177F07D0
:104D400038F3240F351F2817390710F38BE48093AD
:104D5000ED118091ED118E3409F049C09091E4116C
:104D60008091E511891710F48CE401C082E58093ED
:104D7000ED113DC09817D1F0D8016CE0969FA00DC1
:104D8000B11D11241696ED90FC9017971896CD90B2
:104D9000DC901997EC9CD001ED9CB00DFC9CB00D03
:104DA0001124A417B50710F0B32E1DCF2817D9F082
:104DB000D8016CE0269FA00DB11D11241696ED9030
:104DC000FC9017971896CD90DC901997EC9CD00129
:104DD000ED9CB00DFC9CB00D1124A417B50718F084
:104DE000232FB92E00CFB92E922F232FFCCE0F9058
:104DF0000F900F90DF91CF911F910F91FF90EF9047
:104E0000DF90CF90BF909F908F907F906F905F903A
:104E10004F9008954F925F926F927F92EF92FF9220
:104E20000F931F93CF93DF93CDB7DEB7A1970FB644
:104E3000F894DEBF0FBECDBF7C01FA01CB0119A2F1
:104E4000223008F42AE08E010F5D1F4F422E512CB4
:104E5000612C712CBF01A30192010E948941F901CB
:104E6000CA01015011096A3014F4605D01C0695C27
:104E7000D8016C93232B242B252B61F7B801C70194
:104E80009DDAA1960FB6F894DEBF0FBECDBFDF91BD
:104E9000CF911F910F91FF90EF907F906F905F9057
:104EA0004F900895DC01ED91FC910190F081E02D8F
:104EB000199484CA1F920F920FB60F9211240BB649
:104EC0000F922F933F934F935F936F937F938F93A3
:104ED0009F93AF93BF93EF93FF9382EA90E10E9479
:104EE0004A1CFF91EF91BF91AF919F918F917F915C
:104EF0006F915F914F913F912F910F900BBE0F904B
:104F00000FBE0F901F9018951F920F920FB60F9221
:104F100011240BB60F922F938F939F93EF93FF93D0
:104F2000E091B210F091B3108081E091B810F0914F
:104F3000B91082FD12C090818091BB108F5F8F737A
:104F40002091BC10821751F0E091BB10F0E0EE55BB
:104F5000FF4E958F8093BB1001C08081FF91EF9130
:104F60009F918F912F910F900BBE0F900FBE0F90BE
:104F70001F901895CF92DF92EF92FF920F931F939D
:104F8000CF93DF931F921F92CDB7DEB781E080935E
:104F9000A11081E28093F0111092401110923F1104
:104FA00061EE76E083E491E109DA90913F1180911E
:104FB000F011913208F046C0209180102111FCCFF1
:104FC00022E02093801021E020937F102FEF209388
:104FD0007E1010927D1090937C10A1E8B0E14CE51A
:104FE00050E1FA012E2F241B291718F42D9121933B
:104FF000F9CF10925B1090915B10880F892B8093F2
:105000005B1080915A10813061F410925A10809197
:105010005B108093BB008091BC0083FDF8CF85ECD2
:1050200001C085EE8093BC00809180108230E1F356
:1050300080917E108F3F31F080917E10803211F090
:1050400080917E101092401110923F111092A11089
:105050006AE070E080E090E00E94091E809180107C
:105060008111FCCF81E08093801080937F109FEFAF
:1050700090937E1010927D1080937C1080935B1033
:1050800080915B10826480935B1080915A10813014
:1050900061F410925A1080915B108093BB00809154
:1050A000BC0083FDF8CF85EC01C085EE8093BC0089
:1050B000809180108130E1F380917D10823018F46E
:1050C00010917D1001C012E0ACE5B0E12AE330E1BF
:1050D000F9018E2F821B811718F48D918193F9CFDE
:1050E0001092421110934111CE0101967C016E0184
:1050F00093E0C90ED11C80914211181751F0EC14A5
:10510000FD0439F083E491E189D1F70181937F01B6
:10511000F2CF898190E0982F88272A81820F911DF4
:105120006AE070E00E9463348C01072E000C880B4B
:10513000990B0E944D406B017C01B801110F880B47
:10514000990B0E944D4020E030E040E251E40E9483
:10515000EA349B01AC01C701B6010E947F340F9075
:105160000F90DF91CF911F910F91FF90EF90DF9003
:10517000CF900895CF93DF93BC0182EA90E11ED9CE
:10518000EC0160EA75E082EA90E118D98C0F9D1F6E
:10519000DF91CF910895EF92FF920F931F93CF93DA
:1051A000DF93EC01623018F08F8588608F876B8BFE
:1051B0001C8A80E48D8B80E18E8B80E58F8B61E093
:1051C0008C810E94C21C8D818F3F19F061E00E948A
:1051D000C21C61E08E810E94C21C7E0187E0E80E45
:1051E000F11C00E010E08F8584FD03C084E090E0B6
:1051F00002C088E090E0081719074CF461E0F7015D
:1052000081917F010E94C21C0F5F1F4FECCF8BE387
:105210009DE00197F1F760E08C810E94931C60E0B3
:105220008E810E94931C8D818F3F19F060E00E9457
:10523000931C6F8564FD19C063E0CE0148D30BE475
:1052400016E4C8010197F1F763E0CE0140D3C8012D
:105250000197F1F763E0CE013AD383E592E001973D
:10526000F1F762E0CE0133D313C06062CE01B0D358
:105270008BE496E40197F1F76F856062CE01A8D3C5
:1052800083E592E00197F1F76F856062CE01A0D3CC
:105290006F856062CE019CD384E0888B6CE0CE0188
:1052A00097D3CE0197D382E0898B66E0CE01DF9160
:1052B000CF911F910F91FF90EF908AC3AC0160E0F6
:1052C00070E02AE08FE591E1A5CD643008F063E05D
:1052D00090917211691710F06FEF690FE62FF0E0EF
:1052E000E15AFE4E9489682F690F60688FE591E15D
:1052F0006FC3462F50E060E070E02AE08BCDCF9284
:10530000DF92EF92FF92CF93DF936C01990FEE083B
:10531000FF08F7FE19C06DE28FE591E1C3DDEC01F6
:1053200044275527BA014C195D096E097F092AE007
:105330008FE591E16FDD8C0F9D1FDF91CF91FF9085
:10534000EF90DF90CF9008952AE0B701A6018FE596
:1053500091E1DF91CF91FF90EF90DF90CF905ACD08
:105360001F93CF93DF938091D8118823A9F0E09108
:10537000DA1191E09E0F9093DA11F0E0EE0FFF1F2B
:10538000ED55FE4E3589268981508093D811903194
:10539000C9F41092DA1116C09091B511992319F140
:1053A000E091B71181E08E0F8093B711F0E0ED55D9
:1053B000FE4E128191509093B511803131F41092CC
:1053C000B71103C0832F922F15C08BE50E94D72100
:1053D000282F30E0D22FCC27812F0E94D7219E0189
:1053E000282BC90107C08AE50E94D721282F30E069
:1053F00010E0F0CFDF91CF911F9108950895E091D3
:10540000421180914111E81730F4F0E0E65CFF4E64
:10541000808190E008958FEF9FEF08959091421161
:1054200080914111981750F4E92FF0E0E65CFF4EAF
:10543000208130E09F5F9093421102C02FEF3FEF39
:10544000C90108958091411190E020914211821B81
:1054500091090895CF93DF93EC0160E08E810E9463
:10546000931C61E08E810E94931C60E08E810E94FB
:10547000931C8BE891E00197F1F7DF91CF910895AC
:10548000CF92DF92EF92FF920F931F93CF93DF9310
:105490007C01262F972F8A018091A110882391F0FB
:1054A000C62FD72F6E01C40ED51ECC15DD0569F0B1
:1054B0006991D701ED91FC910190F081E02DC70138
:1054C0001995F3CF642F822FBFD8C801DF91CF91F8
:1054D0001F910F91FF90EF90DF90CF900895CF93A1
:1054E000DF931F92CDB7DEB769832091A1102223ED
:1054F000D1F020913F11203240F021E030E0FC015A
:105500003383228380E090E014C080914011E82F23
:10551000F0E0EF57FF4E998190838F5F80934011A9
:1055200080933F1104C061E0CE0101968DD881E0E7
:1055300090E00F90DF91CF910895CF93DF93EC012E
:1055400060E088810E94931C60E070E08A81DF91B6
:10555000CF910C94FE1C87E591E1EFDF83E591E1AB
:10556000ECDF8FE491E1E9CF1092801081E080932D
:105570007F1010925A1061E084E10E94931C61E058
:1055800085E10E94931CE9EBF0E080818E7F8083AF
:1055900080818D7F808388E48093B80085E4809348
:1055A000BC000895CF93DF93EC0161E088810E94F5
:1055B000931C60E070E08A81DF91CF910C94FE1C17
:1055C00087E591E1EFDF83E591E1ECDF8FE491E1A5
:1055D000E9CFEF92FF921F93CF93DF931F92CDB746
:1055E000DEB77C01862F272F972F60E071E00E94A5
:1055F0006334182F622F6095661F6627661FF701B8
:10560000808199830E94931C612F9981792F77FF64
:1056100003C0719561957109F70182810F90DF9147
:10562000CF911F91FF90EF900C94FE1CCF93DF93CE
:105630001F921F92CDB7DEB7CE0101969F938F9335
:1056400089E297E09F938F938091E30F8F938091EE
:10565000E20F8F930E946B3869817A818FE491E128
:10566000B8DF0F900F900F900F900F900F900F904A
:105670000F90DF91CF910895CF93DF931F921F92E8
:10568000CDB7DEB7CE0101969F938F9389E297E065
:105690009F938F938091E30F8F938091E20F8F936D
:1056A0000E946B3869817A8183E591E192DF0F90E6
:1056B0000F900F900F900F900F900F900F90DF9121
:1056C000CF910895CF93DF931F921F92CDB7DEB78E
:1056D000CE0101969F938F9389E297E09F938F93DA
:1056E0008091E30F8F938091E20F8F930E946B382C
:1056F00069817A8187E591E16CDF0F900F900F90BF
:105700000F900F900F900F900F90DF91CF91089511
:10571000EF92FF920F931F93CF93DF93EC010E94C0
:105720001A0E9C01853B910514F028563140E88102
:10573000F981CF01F7FF04C0882799278E1B9F0BA3
:105740004A815B8157FF03C0519541955109481724
:1057500059070CF4AC018C819D8197FF03C0919592
:1057600081959109481759070CF4AC018FEF90E02F
:105770007C01E41AF50A2F313105FCF4223E8FEF4B
:105780003807F4F046E4429FC001439F900D112476
:105790006EE170E00E94633437FF03C031952195BC
:1057A0003109629FC001639F900D729F900D11247B
:1057B0006EE170E00E94633405C066E470E002C0F0
:1057C0006AEB7FEF002711270E191F096017710779
:1057D0002CF08B01E616F7060CF48701BF01600F71
:1057E000711F87E591E1F5DE6A817B81600F711F92
:1057F00083E591E1EEDE6C817D81600F711F8FE4A6
:1058000091E1DF91CF911F910F91FF90EF90E1CE49
:105810000F931F93CF93DF9300D000D0CDB7DEB7A7
:10582000CE0105969F938F9302979F938F938E013E
:105830000F5F1F4F1F930F9383E297E09F938F9308
:105840008091E30F8F938091E20F8F930E946B38CA
:105850000FB6F894DEBF0FBECDBF039719F4C80191
:1058600057DF03C083E00E94B11F26960FB6F8945D
:10587000DEBF0FBECDBFDF91CF911F910F91089575
:10588000EF92FF920F931F93CF93DF931F921F927C
:10589000CDB7DEB77C01062F142F61E0802F5A832D
:1058A00079830E94C21C61E0812F0E94C21CF70113
:1058B00000837981718312835A8153830F900F90F3
:1058C000DF91CF911F910F91FF90EF900895CF92AC
:1058D000DF92EF92FF920F931F93CF93DF937C01A0
:1058E0006C0187E0C80ED11CC0E0D0E0062F10E0AC
:1058F000B8010C2E02C0759567950A94E2F76170A5
:10590000F60181916F010E94931C2196C430D1054C
:1059100079F7C701DF91CF911F910F91FF90EF9021
:10592000DF90CF9097CDCF92DF92EF92FF920F93BF
:105930001F93CF93DF93EC01F62E642F8C810E948E
:10594000931C8D818F3F19F060E00E94931C8F851E
:105950000F2D10E084FF24C06E0187E0C80ED11C1B
:10596000E12CF12CB8010E2C02C0759567950A94B4
:10597000E2F76170F60181916F010E94931CFFEFC5
:10598000EF1AFF0A88E0E816F10461F7CE01DF9113
:10599000CF911F910F91FF90EF90DF90CF905ACD54
:1059A000B80184E0759567958A95E1F7CE018FDFA0
:1059B0006F2DCE01DF91CF911F910F91FF90EF904E
:1059C000DF90CF9084CF41E0AEDF81E090E008959A
:1059D00040E0A9CF61E0FCDF8BE39FE10197F1F7A5
:1059E0000895CF93DF93EC01BC0187E591E1F1DDF0
:1059F000BE0183E591E1EDDDBE018FE491E1DF9130
:105A0000CF91E7CDCF93DF9300D000D0CDB7DEB7F5
:105A1000282FCE01019636E0FC0111923A95E9F764
:105A200030E03C832B833195219531093E832D83D2
:105A30006FDE26960FB6F894DEBF0FBECDBFDF91A6
:105A4000CF910895CF93DF931F92CDB7DEB7CE01EC
:105A500001969F938F9385ED95E09F938F9380910F
:105A6000E30F8F938091E20F8F930E946B380F901A
:105A70000F900F900F900F900F90019719F489815C
:105A8000C1DF03C083E00E94B11F0F90DF91CF916F
:105A90000895CF93DF9300D000D0CDB7DEB7282F85
:105AA000CE01019636E0FC0111923A95E9F730E01B
:105AB0003A8329833195219531093E832D8328DE50
:105AC00026960FB6F894DEBF0FBECDBFDF91CF9103
:105AD0000895CF93DF931F92CDB7DEB7CE01019625
